:020000040800F2
:1000000000000120651D0008C9030008CB0300089B
:10001000CD030008CF030008D10300080000000052
:10002000000000000000000000000000911B00081C
:10003000D303000800000000311C0008751C0008F4
:10004000AD1D0008AD1D0008AD1D0008AD1D000868
:10005000AD1D0008AD1D0008AD1D0008AD1D000858
:10006000AD1D0008AD1D0008AD1D0008AD1D000848
:10007000AD1D0008AD1D0008AD1D0008AD1D000838
:10008000AD1D0008AD1D0008AD1D0008AD1D000828
:10009000AD1D0008AD1D0008AD1D0008AD1D000818
:1000A000AD1D0008AD1D0008AD1D0008AD1D000808
:1000B000AD1D0008AD1D0008AD1D0008AD1D0008F8
:1000C000AD1D0008AD1D0008AD1D0008AD1D0008E8
:1000D000AD1D0008AD1D0008AD1D0008AD1D0008D8
:1000E000AD1D0008AD1D0008AD1D0008AD1D0008C8
:1000F000AD1D0008AD1D0008AD1D0008AD1D0008B8
:10010000AD1D0008AD1D0008AD1D0008AD1D0008A7
:10011000AD1D0008AD1D0008AD1D0008D503000889
:10012000AD1D0008AD1D0008AD1D0008AD1D000887
:1001300000000000000000000000000000000000BF
:1001400000000000000000000000000000000000AF
:10015000000000000000000000000000000000009F
:10016000000000000000000000000000000000008F
:10017000000000000000000000000000000000007F
:10018000000000000000000000000000000000006F
:10019000000000000000000000000000000000005F
:1001A000000000000000000000000000000000004F
:1001B000000000000000000000000000000000003F
:1001C000000000000000000000000000000000002F
:1001D000000000000000000000000000000000001F
:0401E0005FF8E0F1F3
:1001F00010B5054C237833B9044B13B10448AFF361
:1002000000800123237010BD2400002000000000A6
:10021000F81D000808B5034B1BB103490348AFF3B1
:10022000008008BD0000000028000020F81D000824
:1002300030B591B00024089409940B940C94019467
:100240000294039404940594012206924FF480339F
:1002500007930A9202250D950E934FF4E0130F9326
:1002600006A800F097FA0F230193029503944FF428
:10027000806304930594294601A800F0B3FC11B0F3
:1002800030BD08B500F04CFAFFF7D2FF00F012F8CD
:1002900000F086F801F0FAFAFEE7000008B50268FF
:1002A000034B9A4200D008BD00F04CFAFBE700BFB8
:1002B0000014004030B589B00024049405940694DD
:1002C0000794174B9A6942F010029A619A6902F0FA
:1002D00010020192019A9A6942F008029A619A69A1
:1002E00002F008020292029A9A6942F004029A61AC
:1002F0009B6903F004030393039B0A4D22462321C9
:10030000284600F065FE23230493012305930694F9
:100310000223079304A9284600F066FD09B030BD0A
:1003200000100240000C0140024B01221A701878A4
:10033000704700BF00000020024B01221A7018789D
:10034000704700BF00000020002070470020704769
:100350000120704708B50349034800F0E1FE034B54
:10036000187008BD980D0020040000209C0D00208E
:1003700008B5FFF7EFFF094C2021204600F02EFEC4
:100380000221204600F02AFE0121044800F026FE4A
:100390004FF4FA7001F099FAF6E700BF000C014043
:1003A00030B587B001AC064D0FCD0FC42B6823606C
:1003B000002101A801F06FFA024B186007B030BDB0
:1003C000101E0008001200207047FEE7FEE7FEE75F
:1003D000FEE7704708B5024800F07DF808BD00BF91
:1003E0000412002000B583B0114B9A6942F001025B
:1003F0009A619A6902F001020092009ADA6942F069
:100400008052DA61DB6903F080530193019B002283
:100410000F216FF0010000F0F7FD064A536823F04A
:10042000E06343F00073536003B05DF804FB00BF6A
:10043000001002400000014000B589B000220146D2
:10044000372000F0E1FD372000F012FE154BDA698D
:1004500042F02002DA61DB6903F020030193019B83
:1004600002A903A800F0A2FC00F090FC43000E4893
:10047000A0FB03239B0C013B0C480D4A026040F299
:10048000E732C260436000230361836000F02CF90F
:1004900018B1012009B05DF804FB044800F00BF826
:1004A000F8E700BF0010024083DE1B430412002067
:1004B0000014004070470268D36843F00103D36022
:1004C0000268136843F0010313600020704770470F
:1004D00070477047704710B5044603681A6912F0F8
:1004E000020F11D0DA6812F0020F0DD06FF0020285
:1004F0001A610123037703689B6913F0030F70D01F
:10050000FFF7E6FF0023237723681A6912F0040F30
:1005100012D0DA6812F0040F0ED06FF004021A61E4
:100520000223237723689B6913F4407F5FD0204622
:10053000FFF7CEFF0023237723681A6912F0080F14
:1005400012D0DA6812F0080F0ED06FF008021A61AC
:10055000042323772368DB6913F0030F4ED0204672
:10056000FFF7B6FF0023237723681A6912F0100FF4
:1005700012D0DA6812F0100F0ED06FF010021A616C
:10058000082323772368DB6913F4407F3DD020469E
:10059000FFF79EFF0023237723681A6912F0010FEB
:1005A00003D0DA6812F0010F36D123681A6912F00D
:1005B000800F03D0DA6812F0800F34D123681A69F3
:1005C00012F0400F03D0DA6812F0400F32D12368E6
:1005D0001A6912F0200F03D0DA6812F0200F30D120
:1005E00010BDFFF774FF2046FFF773FF8AE7204630
:1005F000FFF76DFF2046FFF76CFF9BE72046FFF7F4
:1006000066FF2046FFF765FFACE72046FFF75FFF78
:100610002046FFF75EFFBDE76FF001021A6120463A
:10062000FFF73CFEC1E76FF080021A61204600F040
:1006300076F8C3E76FF040021A612046FFF74AFFE1
:10064000C5E76FF020021A61204600F067F8C7E79F
:100650000368244A904212D002F5006290420ED004
:10066000B0F1804F0BD0A2F59832904207D002F53E
:100670008062904203D002F58062904203D123F061
:1006800070034A681343174A904212D002F5006281
:1006900090420ED0B0F1804F0BD0A2F5983290422C
:1006A00007D002F58062904203D002F5806290424A
:1006B00003D123F44073CA68134323F080034A69CB
:1006C000134303608B68C3620B688362054B9842D7
:1006D00003D003F50063984201D10B690363012342
:1006E00043617047002C0140B0B110B5044690F84A
:1006F0003D3063B1022384F83D30214651F8040BAC
:10070000FFF7A6FF012384F83D30002010BD80F8DC
:100710003C30FFF7CFFEEDE7012070477047704790
:1007200008B5074A136843F010031360032000F074
:1007300059FC0020FFF780FEFFF754FE002008BDA3
:1007400000200240034A1168034B1B780B441360DE
:10075000704700BF4412002018000020014B1868A9
:10076000704700BF4412002082B0084B1B68084A43
:10077000A2FB03235B0A00FB03F0019000BF019B77
:100780005A1E0192002BF9D102B070471C000020C4
:10079000D34D621070B582B00446036813F0010FA8
:1007A0002CD0AB4B5B6803F00C03042B1DD0A84B83
:1007B0005B6803F00C03082B12D06368B3F5803F2D
:1007C00041D0002B55D103F1804303F504331A685F
:1007D00022F480321A601A6822F480221A6037E00C
:1007E0009B4B5B6813F4803FE7D0994B1B6813F475
:1007F000003F03D06368002B00F0AE81236813F044
:10080000020F75D0924B5B6813F00C0F5FD0904BCA
:100810005B6803F00C03082B54D02369002B00F015
:1008200089808C4B01221A60FFF798FF0546884BA0
:100830001B6813F0020F74D1FFF790FF401B0228D2
:10084000F5D903208DE1824A136843F480331360A5
:10085000636843B3FFF782FF05467D4B1B6813F4C3
:10086000003FCBD1FFF77AFF401B6428F5D9032066
:1008700077E1B3F5A02F09D0754B1A6822F48032C6
:100880001A601A6822F480221A60E1E703F18043BB
:10089000A3F53C331A6842F480221A601A6842F4C5
:1008A00080321A60D4E7FFF759FF0546684B1B6892
:1008B00013F4003FA2D0FFF751FF401B6428F5D985
:1008C00003204EE1624B5B6813F4803FA5D1604B7F
:1008D0001B6813F0020F03D02369012B40F03E8107
:1008E0005B4A136823F0F803616943EAC1031360AC
:1008F000236813F0080F32D0A369002B5BD0564B4E
:1009000001221A60FFF72AFF0546514B5B6A13F07C
:10091000020F21D1FFF722FF401B0228F5D9032047
:100920001FE14B4A136823F0F803616943EAC103EE
:100930001360DDE7474B00221A60FFF70FFF054603
:10094000434B1B6813F0020FD2D0FFF707FF401B89
:100950000228F5D9032004E10120FFF705FF2368F1
:1009600013F0040F00F09880394BDB6913F0805FBF
:1009700033D1374BDA6942F08052DA61DB6903F038
:1009800080530193019B0125344B1B6813F4807F36
:1009900025D0E368012B36D0002B4CD103F18043E6
:1009A00003F504331A6A22F001021A621A6A22F06D
:1009B00004021A622CE0284B00221A60FFF7CEFED8
:1009C0000546234B5B6A13F0020FC8D0FFF7C6FE43
:1009D000401B0228F5D90320C3E00025D4E71F4AB5
:1009E000136843F480731360FFF7B8FE06461B4B91
:1009F0001B6813F4807FCCD1FFF7B0FE801B642806
:100A0000F5D90320ADE0124A136A43F001031362E3
:100A1000E3687BB3FFF7A2FE06460D4B1B6A13F09B
:100A2000020F38D1FFF79AFE801B41F288339842BB
:100A3000F3D9032095E0052B12D0054B1A6A22F05A
:100A400001021A621A6A22F004021A62E0E700BF89
:100A50000010024000004242800442420070004008
:100A6000424B1A6A42F004021A621A6A42F0010208
:100A70001A62CDE7FFF772FE06463C4B1B6A13F085
:100A8000020F08D0FFF76AFE801B41F288339842BC
:100A9000F3D9032065E0E5B9E369002B60D0334A60
:100AA000526802F00C02082A5DD0022B17D0304B9E
:100AB00000221A60FFF752FE04462C4B1B6813F00D
:100AC000007F47D0FFF74AFE001B0228F5D903201C
:100AD00047E0264AD36923F08053D361DCE7244BF7
:100AE00000221A60FFF73AFE0546204B1B6813F000
:100AF000007F06D0FFF732FE401B0228F5D9032005
:100B00002FE0236AB3F5803F1AD018494B6823F4CD
:100B10007413226A606A024313434B60144B012230
:100B20001A60FFF71BFE0446104B1B6813F0007F92
:100B30000ED1FFF713FE001B0228F5D9032010E0A9
:100B40000A4A536823F40033A1680B435360DCE77F
:100B5000002006E0002004E0012002E0012000E087
:100B6000002002B070BD0120FBE700BF0010024072
:100B70006000424210B487B0164C94E80F000DF1AB
:100B8000180C0CE90F00238AADF80430124B5B6897
:100B900003F00C02082A03D0104807B010BC7047BD
:100BA000C3F38342624412F8102C13F4803F0CD03C
:100BB000094B5B68C3F34043634413F8143C074894
:100BC00000FB02F0B0FBF3F0E7E7054800FB02F0A2
:100BD000E3E700BF241E00080010024000127A0064
:100BE00000093D00624B1B6803F007038B420BD2E8
:100BF0005F4A136823F007030B431360136803F085
:100C000007038B4240F0AE8070B5036813F0020F0B
:100C100017D013F0040F04D0564A536843F4E0632E
:100C20005360036813F0080F04D0524A536843F42A
:100C3000605353604F4A536823F0F00384682343A2
:100C400053600D460446036813F0010F52D0436809
:100C5000012B23D0022B28D0464A126812F0020F33
:100C600000F0828043494A6822F0030213434B603C
:100C7000FFF774FD06466368012B1DD0022B2AD0B6
:100C80003C4B5B6813F00C0F34D0FFF767FD801B03
:100C900041F288339842F3D9032062E0354A126862
:100CA00012F4003FDED101205BE0324A126812F0FC
:100CB000007FD7D1012054E02E4B5B6803F00C037A
:100CC000042B17D0FFF74AFD801B41F2883398426E
:100CD000F2D9032045E0274B5B6803F00C03082B97
:100CE00008D0FFF73BFD801B41F288339842F2D9D0
:100CF000032036E01E4B1B6803F00703AB420AD902
:100D00001B4A136823F007032B431360136803F097
:100D10000703AB422AD1236813F0040F06D0154A0B
:100D2000536823F4E063E1680B435360236813F0D6
:100D3000080F07D00F4A536823F46053216943EA30
:100D4000C1035360FFF716FF0A4B5B68C3F303133D
:100D5000094AD35CD840094B18600020FFF76CFBB0
:100D6000002070BD012070470120FAE70120F8E75C
:100D70000020024000100240481E00081C00002015
:100D8000014B1868704700BF1C00002008B5FFF732
:100D9000F7FF044B5B68C3F30223034AD35CD840DC
:100DA00008BD00BF00100240581E00080F2303605A
:100DB0000B4B5A6802F0030242605A6802F0F002DC
:100DC00082605A6802F4E062C2605B68DB0803F488
:100DD000E0630361034B1B6803F007030B6070477C
:100DE0000010024000200240F0B482B000263546D8
:100DF000A6E0002B5ED0012B10D1CE680EE06E4F26
:100E0000BB4257D04ED96D4FBB4253D007F5803708
:100E1000BB424FD0A7F58017BB424BD0FF2A5DD80D
:100E20008446FF2A5DD8AC00DCF800300F27A740CD
:100E300023EA070306FA04F42343CCF800304B6896
:100E400013F0805F7BD05E4B9C6944F001049C6191
:100E50009B6903F001030193019BAC08A71C594B4C
:100E600053F827C005F003039F000F23BB402CEA73
:100E7000030C554B98423AD003F58063984278D0E2
:100E800003F58063984276D003F58063984274D06E
:100E900003F58063984272D003F58063984224D0B2
:100EA000062325E0A7F58017BB4203D007F580375E
:100EB000BB42B3D18B687BB1012B08D044610826BB
:100EC000ACE7CE680836A9E7CE680C36A6E7046121
:100ED0000826A3E70026A1E704269FE700F1040CFB
:100EE0009FE7A5F10804A4009EE7052300E0002386
:100EF000BB4043EA0C030234324F47F824304B68BE
:100F000013F4803F3DD0314C2368134323604B687A
:100F100013F4003F3BD02D4C6368134363604B6870
:100F200013F4801F39D0294CA3681343A3604B6886
:100F300013F4001F37D0254CE3681A43E2600135F3
:100F40000F2D36D80124AC400A6822409442F6D1D5
:100F50004B68122BB8D03FF652AF022BB1D07FF6C0
:100F600048AF032BB6D0112B7FF458AFCE680436B0
:100F700054E70123BCE70223BAE70323B8E70423BD
:100F8000B6E7124C236823EA02032360BFE70F4C45
:100F9000636823EA02036360C1E70C4CA36823EA99
:100FA0000203A360C3E7094CE36823EA0202E2609C
:100FB000C5E702B0F0BC70470000211000003110FE
:100FC0000010024000000140000801400004014000
:100FD0000AB101617047090401617047C368594053
:100FE000C1607047074AD36823F4E0631B041B0CFD
:100FF000000200F4E060184340F0BF6040F40030AD
:10100000D060704700ED00E030B4174BDB68C3F3ED
:101010000223C3F10704042C28BF04241D1D062D40
:1010200001D9033B00E000234FF0FF3505FA04F43B
:1010300021EA0401994005FA03F322EA0303194364
:10104000002809DB0901C9B200F1604000F56140E8
:1010500080F8001330BC704700F00F000901C9B2DE
:10106000024B1954F6E700BF00ED00E014ED00E07C
:1010700000F01F02400901239340024A42F8203049
:10108000704700BF00E100E00F4B1A6842F0010218
:101090001A6059680D4A0A405A601A6822F0847230
:1010A00022F480321A601A6822F480221A605A6888
:1010B00022F4FE025A604FF41F029A60044B4FF074
:1010C00000629A60704700BF001002400000FFF805
:1010D00000ED00E0114B5B7ADBB2012B01D901205E
:1010E000704730B40D4B5D7AEDB200245C555D7AEB
:1010F00003EB85056860587A184402725A7AD2B2B6
:10110000501CC0B2587230320A703A234B702F23F1
:101110008B70CC70204630BC704700BF4000002070
:1011200008B50022FFF7D6FF08BD00F108034360B1
:101130004FF0FF328260C360036100230360704799
:1011400000230361704743684B609A688A6051606E
:1011500099600861036801330360704730B40D681B
:10116000B5F1FF3F02D000F1080202E0026904E09D
:101170001A4653681C68AC42FAD953684B609960B0
:101180008A605160086103680133036030BC7047B6
:101190000369416882688A60416851605A68824286
:1011A00005D0002202611868013818607047826813
:1011B0005A60F6E7084B1B681B6823B9074B4FF0D2
:1011C000FF321A607047044B1B68DB68DB685A68A3
:1011D000024B1A60704700BF500000202801002019
:1011E00010B50446006B00F05BFC204600F058FC94
:1011F00010BD2DE9F04780469946089D099F0A9C3D
:10120000266B02F18042013A06EB820626F00706C1
:1012100000230F2B06D8CA5CE01880F834200AB1EE
:101220000133F6E7002384F84330062D00D9062564
:10123000E56265644FF0000AC4F848A0201DFFF77E
:101240007FFF04F11800FFF77BFF2461C5F107055C
:10125000A5616462C4F84CA084F850A04A46414697
:10126000304600F07FFC206007B13C60BDE8F087AD
:1012700038B50024062C08D804EB840293000E48ED
:101280001844FFF752FF0134F4E70C4D2846FFF7EE
:101290004CFF0B4C2046FFF748FF0A48FFF745FF7D
:1012A0000948FFF742FF0948FFF73FFF084B1D6061
:1012B000084B1C6038BD00BF58000020FC00002017
:1012C00010010020300100205C01002048010020B6
:1012D000500000205400002010B5044600F06AFCC5
:1012E000204A1368013313601F4B1B685BB11F4B0F
:1012F0001B686BB91C4B1B68DA6AE36A9A4207D811
:10130000194B1C6004E0184B1C601368012B26D09D
:10131000174A136801331360E36A01229A401549A2
:10132000086802430A6003EB83039A00211D1248F8
:101330001044FFF708FF00F05FFC0C4B1B686BB11B
:10134000094B1B68DA6AE36A9A4207D20B4B4FF0EB
:1013500080521A60BFF34F8FBFF36F8F10BDFFF73E
:1013600087FFD5E7E40000204C0000204401002066
:10137000F4000020F80000205800002004ED00E0F8
:1013800070B504460E461D4B1D681D4B1868043091
:10139000FFF7FEFE50B91A4B1B68DA6A012303FA05
:1013A00002F218490B6823EA02030B60B4F1FF3F15
:1013B0000DD02C44124B1B685C60A54210D9124B17
:1013C00018680F4B19680431FFF7C8FE70BD002E76
:1013D000EFD00B4B196804310C48FFF7B4FEF5E76A
:1013E0000B4B1868064B19680431FFF7B7FE094B21
:1013F0001B68A342EAD9074B1C60E7E77001002095
:101400004C000020F800002054000020480100207B
:1014100050000020280100202DE9F04385B0074648
:10142000884614469946900000F0B6FAE8B10646A0
:10143000542000F0B1FA054698B10663D5B10023F7
:10144000039302950D9B01930C9B00934B46224600
:1014500041463846FFF7CDFE2846FFF73DFF012005
:1014600005E0304600F01CFBE8E74FF0FF3005B028
:10147000BDE8F0834FF0FF30F9E7000000B583B01E
:10148000174B019300230093802216491648FFF75B
:10149000C3FF012805D0B0F1FF3F17D003B05DF8BE
:1014A00004FB4FF0500383F31188BFF36F8FBFF33A
:1014B0004F8F0E4B4FF0FF321A600D4B01221A6016
:1014C0000C4B00221A6000F001FCE7E74FF05003DC
:1014D00083F31188BFF36F8FBFF34F8FFEE700BF19
:1014E00024010020601E0008C11700082801002008
:1014F0004401002070010020024A13680133136088
:10150000704700BFF0000020F8B53A4B1B68002B75
:1015100064D1394B1D6801351D60C5B9374B1B6857
:101520001B6843B14FF0500383F31188BFF36F8FF3
:10153000BFF34F8FFEE7314A1168314B18681060D6
:101540001960304A136801331360FFF733FE2E4BE6
:101550001B68AB4238D900242C4B1B68DB6A03EBB9
:1015600083039A002A4B9B58012B3CD901243AE073
:101570000124224B1B681B6843B3204B1B68DB68AC
:10158000DE6873689D4226D3371D3846FFF700FE9C
:10159000B36A1BB106F11800FFF7FAFDF36A0122E6
:1015A0009A401C49086802430A6003EB83039A00CF
:1015B000394617481044FFF7C6FDF26A134B1B6803
:1015C000DB6A9A42D4D2D4E70024D2E70E4B4FF024
:1015D000FF321A60C0E70C4A1360BDE70E4A136879
:1015E0000133136000240D4B1B6803B10124204616
:1015F000F8BD00BFF0000020700100205000002066
:10160000540000202C010020280100204C00002064
:1016100058000020F8000020EC0000207401002099
:1016200038B5344B1B6843B94FF0500383F311882E
:10163000BFF36F8FBFF34F8FFEE700F0BBFA2D4B68
:101640001A68013A1A601B68002B4DD12A4B1B689F
:101650000BB9002449E00024284B1B681BB3274B1F
:10166000DB68DC6804F11800FFF792FD251D2846B1
:10167000FFF78EFDE36A01229A4021490868024380
:101680000A6003EB83039A0029461E481044FFF7C3
:101690005AFDE26A1C4B1B68DB6A9A42DCD31B4B87
:1016A00001221A60D8E70CB1FFF784FD184B1C68C3
:1016B00074B9164B1C68C4B1164B4FF080521A60B7
:1016C000BFF34F8FBFF36F8F01240EE0013C07D0B3
:1016D000FFF71AFF0028F9D00C4B01221A60F5E73A
:1016E0000B4B00221A60E4E7002400F085FA204644
:1016F00038BD00BFF0000020E400002030010020D1
:10170000F8000020580000204C0000207401002048
:10171000EC00002004ED00E010B5A8B104460F4B2A
:101720001B6843B14FF0500383F31188BFF36F8FF1
:10173000BFF34F8FFEE7FFF7DFFE00212046FFF7E4
:101740001FFEFFF76DFF38B9054B4FF080521A604E
:10175000BFF34F8FBFF36F8F10BD00BFF0000020AD
:1017600004ED00E0134B1B681BB310B502E0114BF6
:101770001B68EBB1FFF7C0FE0F4B1C68FFF750FF73
:10178000002CF4D000F016FA0B4BDB68DC68201D4F
:10179000FFF7FEFC094A1368013B1360054A136812
:1017A000013B136000F028FA2046FFF719FDDEE741
:1017B00010BD7047E80000205C010020E40000201C
:1017C00008B5FFF7CFFF064B1B68012BF9D9054B76
:1017D0004FF080521A60BFF34F8FBFF36F8FF0E767
:1017E0005800002004ED00E0204B1B681BB1204B8B
:1017F00001221A6070471E4B00221A601D4B1B68A5
:10180000B3FA83F3DBB2C3F11F0303EB83018A0056
:1018100019498A5842B94FF0500383F31188BFF336
:101820006F8FBFF34F8FFEE710B413489A00D418A0
:10183000A10001444C6864684C601A44910008316E
:10184000084484420AD003EB83039A000A4B1344F2
:101850005B68DA68094B1A6010BC7047606803EB7C
:1018600083029100044A0A445060ECE7F000002033
:1018700074010020F8000020580000204C000020D7
:10188000842801D0033070470020704708B5FFF767
:10189000F5FD002008BDF0B585B00F464468056829
:1018A0000669B0F90800FFF7EBFF03AB0193009066
:1018B0003B46B2B229462046FFF7AEFD012802D1D1
:1018C000039805B0F0BD0020FBE708B5034600B95A
:1018D00001231846FFF720FF002008BD124A12F02E
:1018E000070F07D0D11D21F00701C1F54063134454
:1018F0000A4601E04FF440630C4802600021416059
:101900001344083B23F0070309480360596019603A
:10191000991A51601360074B1960074B1960074B08
:101920004FF000421A6070477C010020880D0020B3
:1019300078010020840D0020800D00207C0D002007
:1019400010B4134A00E01A4613688342FBD351686F
:101950005418844209D041684418A3420AD0036055
:10196000904200D0106010BC704740680144516044
:101970001046F0E7074C2468A34206D05B68194480
:10198000416013681B680360EAE70460E8E700BF92
:10199000880D00207801002070B50446FFF7ACFDEB
:1019A0003A4B1B68BBB13A4B1B681C4256D1ACB1D9
:1019B000083414F0070F11D024F00704083404F0A1
:1019C00007035BB14FF0500383F31188BFF36F8FB0
:1019D000BFF34F8FFEE7FFF781FFE4E7002C3FD016
:1019E0002C4B1B68A3424AD32B4B1D6801E02B46AE
:1019F00015466A68A24202D22A68002AF7D1234A11
:101A00001268AA423DD01E6808362A681A606B68C0
:101A10001B1B102B10D9281910F0070F08D04FF0FE
:101A2000500383F31188BFF36F8FBFF34F8FFEE72F
:101A300043606C60FFF784FF6A6816490B689B1A65
:101A40000B60164909688B4201D214490B60104B98
:101A50001B6813436B6000232B6002E0002600E04C
:101A60000026FFF7DDFD16F0070F0CD04FF05003F6
:101A700083F31188BFF36F8FBFF34F8FFEE700260C
:101A8000EFE70026EDE7304670BD00BF780100208B
:101A90007C0D0020800D0020880D0020840D00208A
:101AA00080B338B50446A0F1080550F8042C164957
:101AB00009680A4208D14FF0500383F31188BFF33D
:101AC0006F8FBFF34F8FFEE750F8080C40B14FF017
:101AD000500383F31188BFF36F8FBFF34F8FFEE77F
:101AE00022EA010244F8042CFFF706FD54F8041C16
:101AF000064A13680B4413602846FFF721FFFFF7DF
:101B00008FFD38BD704700BF7C0D0020800D002088
:101B10000B4B1B68B3F1FF3F08D04FF0500383F32A
:101B20001188BFF36F8FBFF34F8FFEE74FF0500365
:101B300083F31188BFF36F8FBFF34F8FFEE700BFB2
:101B40002000002006480068006880F3088862B61C
:101B500061B6BFF34F8FBFF36F8F00DF00BF000090
:101B600008ED00E04FF0807340F8043C21F00101E3
:101B700040F8081C034B40F80C3C40F8202C40383F
:101B8000704700BF111B00080000000000000000AB
:101B9000074B19680868B0E8F00F80F30988BFF3B5
:101BA0006F8F4FF0000080F311884EF00D0E7047DC
:101BB0004C0000204FF0500383F31188BFF36F8F68
:101BC000BFF34F8F0A4A136801331360012B00D013
:101BD0007047084B1B6813F0FF0FF9D04FF050030C
:101BE00083F31188BFF36F8FBFF34F8FFEE700BF02
:101BF0002000002004ED00E0094B1B6843B94FF0C2
:101C0000500383F31188BFF36F8FBFF34F8FFEE74D
:101C1000013B034A13600BB983F31188704700BF7F
:101C20002000002000000000000000000000000074
:101C3000EFF30980BFF36F8F0D4B1A6820E9F00FA7
:101C400010602DE908404FF0500080F31188FFF735
:101C5000CBFD4FF0000080F31188BDE80840196803
:101C60000868B0E8F00F80F30988BFF36F8F704702
:101C70004C00002008B54FF0500383F31188BFF3E8
:101C80006F8FBFF34F8FFFF73FFC18B1034B4FF03F
:101C900080521A60002383F3118808BD04ED00E030
:101CA000064B1B68064AA2FB03239B09013B054A1E
:101CB0001360054B07221A60704700BF1C0000200C
:101CC000D34D621014E000E010E000E000B583B0F6
:101CD0001F4B1A78D2B20192FF221A701B78DBB226
:101CE0008DF803309DF8033003F05003194A137048
:101CF000194B07221A609DF8033013F0800F0AD0A9
:101D0000154A1368013B13609DF803305B00DBB29A
:101D10008DF80330EFE7104A13681B0203F4E06309
:101D20001360019BDBB20A4A13700C4B1A6842F431
:101D300070021A601A6842F070421A60FFF7B0FF32
:101D4000074B00221A60FFF7FDFEFFF7E1FE00BF20
:101D500000E400E0900D0020940D002020ED00E054
:101D600020000020002103E00B4B5B58435004315E
:101D70000A480B4B42189A42F6D30A4A02E0002363
:101D800042F8043B084B9A42F9D3FFF77DF900F083
:101D90000FF8FEF776FA7047701E0008000000206A
:101DA000240000202400002048120020FEE700004C
:101DB00070B500260C4D0D4C641BA410A64209D131
:101DC00000F01AF800260A4D0A4C641BA410A64223
:101DD00005D170BD55F8043B98470136EEE755F83C
:101DE000043B98470136F2E7681E0008681E0008A9
:101DF000681E00086C1E0008F8B500BFF8BC08BCDF
:101E00009E467047F8B500BFF8BC08BC9E467047B8
:101E1000381E0008710300080000000000000000E8
:101E20008000000002030405060708090A0B0C0DD8
:101E30000E0F10100102000064656661756C745429
:101E400061736B000600000000000000000000004D
:101E50000102030406070809000000000102030450
:081E600049444C45000000005C
:041E68001502000857
:041E6C00F101000878
:101E70000100000029030008390300084903000895
:101E80004D030008510300080100000000A24A04AD
:041E9000AAAAAAAAA6
:0400000508001D656D
:00000001FF
